:020000040800F2
:100000000000022025130008C1120008C3120008D6
:10001000C5120008C7120008C9120008000000003D
:10002000000000000000000000000000CB120008EB
:10003000CD12000800000000CF120008D112000805
:100040007513000875130008751300087513000870
:100050007513000875130008751300087513000860
:100060007513000875130008751300087513000850
:100070007513000875130008751300087513000840
:1000800075130008751300087513000800000000C0
:1000900000000000000000000000000075130008D0
:1000A0007513000875130008751300087513000810
:1000B0007513000875130008751300087513000800
:1000C00075130008751300087513000875130008F0
:1000D0007513000875130008751300080000000070
:1000E0007513000875130008751300080000000060
:1000F0000000000000000000000000007513000870
:10010000000000007513000875130008751300083F
:1001100000000000000000000000000000000000DF
:10012000751300087513000875130008751300088F
:10013000751300080000000000000000000000002F
:10014000000000000000000000000000751300081F
:10015000751300087513000875130008751300085F
:10016000751300087513000800000000000000006F
:10017000000000000000000000000000000000007F
:1001800000000000751300080000000000000000DF
:08019000751300087513000847
:1001980010B5054C237833B9044B13B10448AFF3B9
:1001A80000800123237010BD100000200000000013
:1001B800D013000808B5034B1BB103490348AFF33C
:1001C800008008BD0000000014000020D0130008C3
:1001D80053B94AB9002908BF00281CBF4FF0FF31A6
:1001E8004FF0FF3000F072B9ADF1080C6DE904CEA4
:1001F80000F006F8DDF804E0DDE9022304B07047FA
:100208002DE9F047089E04468846002B4BD18A42C8
:10021800154667D9B2FA82F24AB1C2F1200701FA4B
:1002280002F320FA07F7954047EA030894404FEA9B
:10023800154E230CB8FBFEF71FFA85FC0EFB17883A
:1002480043EA084307FB0CF1994209D9EB1807F177
:10025800FF3080F01B81994240F21881023F2B4405
:100268005B1AA4B2B3FBFEF00EFB103344EA03445E
:1002780000FB0CFCA44509D92C1900F1FF3380F0D0
:100288000781A44540F2048102382C4440EA074023
:10029800A4EB0C0400271EB1D4400023C6E9004398
:1002A8003946BDE8F0878B4209D9002E00F0EB8073
:1002B8000027C6E9000138463946BDE8F087B3FA99
:1002C80083F7002F47D18B4202D3824200F2FA8093
:1002D800841A61EB030301209846002EE0D0C6E99A
:1002E8000048DDE702B9FFDEB2FA82F2002A40F0E8
:1002F8008F80491B4FEA154E1FFA85F80127B1FB7D
:10030800FEFC230C0EFB1C1143EA014308FB0CF115
:10031800994207D9EB180CF1FF3002D2994200F24A
:10032800CD808446591AA3B2B1FBFEF00EFB10141F
:1003380043EA044408FB00F8A04507D92C1900F14A
:10034800FF3302D2A04500F2B6801846A4EB080499
:1003580040EA0C409FE7C7F1200CBB4022FA0CFE94
:100368004EEA030E01FA07F420FA0CF521FA0CF311
:100378004FEA1E482543B3FBF8F92C0C08FB193348
:100388001FFA8EFA44EA034309FB0AF49C4202FA74
:1003980007F200FA07F10BD91EEB030309F1FF304E
:1003A80080F087809C4240F28480A9F1020973445E
:1003B8001B1BADB2B3FBF8F008FB103345EA03444E
:1003C80000FB0AFAA24508D91EEB040400F1FF332A
:1003D8006BD2A24569D90238744440EA0940A0FBAF
:1003E8000289A4EB0A044C45C2464B4654D351D06B
:1003F800002E69D0B1EB0A0564EB030404FA0CFC87
:10040800FD40FC404CEA0505C6E90054002747E7D3
:10041800C2F1200320FA03F7954001FA02F021FA0D
:1004280003F34FEA154E3843010CB3FBFEF71FFAEE
:1004380085F80EFB173341EA034107FB08F38B42AB
:1004480004FA02F407D9691807F1FF3C2FD28B424E
:100458002DD9023F2944CB1A81B2B3FBFEF00EFB23
:10046800103341EA034100FB08F38B4207D96918AE
:1004780000F1FF3C17D28B4215D902382944C91A1A
:1004880040EA07473BE73746304609E70746E7E6CD
:100498001846FBE64145ABD2B8EB020A69EB0E02FF
:1004A80001381346A4E76046E9E7184695E767462A
:1004B800D1E781467CE702382C4447E7ACF1020CCF
:1004C8002B442FE7384608E73746E9E6704700BF70
:1004D80010B504460E4B18784FF47A73B3FBF0F35B
:1004E8000C4A1068B0FBF3F000F088F868B90F2CDC
:1004F80001D901200AE0002221464FF0FF3000F028
:1005080049F8034B5C60002000E0012010BD00BFEB
:10051800000000200C00002008B50B4B1A6842F4BC
:1005280000721A601A6842F480621A601A6842F40B
:1005380080721A60032000F01BF80020FFF7C8FF44
:1005480000F04CFE002008BD003C0240034A116840
:10055800034B1B780B441360704700BF2C0000202E
:1005680000000020014B1868704700BF2C000020D5
:10057800074AD36823F4E0631B041B0C000200F451
:10058800E060184340F0BF6040F40030D06070472E
:1005980000ED00E030B4174BDB68C3F30223C3F16E
:1005A8000704042C28BF04241D1D062D18D9033B5D
:1005B8004FF0FF3505FA04F421EA0401994005FAE1
:1005C80003F322EA0303194300280BDB0901C9B22C
:1005D80000F1604000F5614080F8001330BC7047BE
:1005E8000023E5E700F00F000901C9B2024B1954D6
:1005F800F4E700BF00ED00E014ED00E00138B0F1D1
:10060800807F0AD2064B5860064AF02182F82310F0
:100618000020986007221A6070470120704700BFC9
:1006280010E000E000ED00E000230F2B00F2C58091
:10063800F0B482B039E0042200E00022B2403A432C
:1006480002345E4E46F824205D4A1468EA4302EA02
:1006580004064F6817F4803F01D045EA0406584C59
:100668002660646802EA04064F6817F4003F01D068
:1006780045EA0406524C6660A46802EA04064F681C
:1006880017F4801F01D045EA04064D4CA660E468C3
:1006980022404E6816F4001F01D045EA0402484C77
:1006A800E26001330F2B00F2858001229A400C682A
:1006B80004EA0205AA42F4D14C68022C01D0122C9B
:1006C80010D1DE08083650F826C003F00704A7004A
:1006D8000F24BC402CEA040C0C69BC4044EA0C040E
:1006E80040F8264004685F000326BE40F64306EA49
:1006F800040C4C6804F00304BC4044EA0C04046095
:100708004C6804F1FF3CBCF1010F03D9112C01D056
:10071800122C10D1846806EA040CCC68BC4044EA68
:100728000C048460446824EA02024C68C4F3001490
:100738009C4014434460C26816408A68BA403243F9
:10074800C2604A6812F0805FABD0002201921D4A55
:10075800546C44F480445464526C02F48042019214
:10076800019A9C08A61C154A52F8267003F0030249
:1007780096000F22B24027EA0207134A90423FF43C
:100788005CAF02F5806290420ED002F58062904222
:100798000CD002F5806290420AD002F58062904245
:1007A8003FF449AF072249E7012247E7022245E71C
:1007B800032243E702B0F0BC70477047003801409D
:1007C800003C0140003802400000024012B9090410
:1007D8008161704781617047436931EA030301D041
:1007E800816170470904816170470000002800F0AA
:1007F800BE80F8B5044690F83D30002B6BD024231A
:1008080084F83D302268136823F00103136000F078
:1008180013FC6268584B9A4262D8584B98428CBF76
:1008280000230123002B40F0A480554BA3FB002399
:100838009B0C21684A6822F03F021A434A602568E7
:100848002A6A22F03F0266684B498E424ED801332D
:1008580013432B622568E96921F44F4121F0FF0118
:100868006368454A93424BD801385B00B0FBF3F309
:100878000133C3F30B03042B38BF04230B43EB6191
:1008880021680B6823F0C003E269206A024313431E
:100898000B6021688B6823F4034323F0FF0322696C
:1008A800E068024313438B602168CB6823F0FF03A1
:1008B8006269A06902431343CB602268136843F05E
:1008C8000103136000202064202384F83D30206356
:1008D80084F83E00F8BD80F83C3000F09FFC8EE7BD
:1008E800284B98428CBF002301239BE74FF4967155
:1008F80001FB03F32449A1FB03139B090133A7E779
:10090800A268BAB9461E03EB4307B6FBF7F60136F1
:10091800C6F30B06B6FA86F6760936BBC2B90138B5
:1009280003EB4303B0FBF3F30133C3F30B0242F4CD
:100938000043A3E7461E03EB830707EB8707B6FBD5
:10094800F7F60136C6F30B06B6FA86F67609E4E73B
:10095800013803EB830303EB8303B0FBF3F20132AB
:10096800C2F30B0242F4404388E7012386E70120E3
:1009780070470120AEE700BFA08601007F841E00FB
:1009880083DE1B43FF083D00D34D621030B482B0B4
:100998000024019490F83D40E4B2202C56D12E4C0E
:1009A8002468E4082D4DA5FB0454240A04EB8404B0
:1009B80004EB84040194019C013C0194019C002CEB
:1009C80035D00468A56915F0020FF4D190F83C50B1
:1009D800012D3FD0012580F83C50256815F0010F06
:1009E80003D1256845F00105256005682C6824F4C5
:1009F80000642C60212480F83D40102480F83E409B
:100A08000024046442624385438D0385144BC3620A
:100A180041640268136843F48073136080F83C40B3
:100A28000268536843F4E063536020460FE00023F4
:100A38000363202280F83D2080F83E30026C42F0AB
:100A48002002026480F83C30012000E0022002B05D
:100A580030BC70470220FAE70C00002089B5F81472
:100A68000000FFFF002800F0BB8170B582B004468B
:100A7800036813F0010F3BD0A74B9B6803F00C03EE
:100A8800042B2CD0A44B9B6803F00C03082B21D01B
:100A98006368B3F5803F4FD0B3F5A02F52D09E4B7B
:100AA8001A6822F480321A601A6822F480221A60C6
:100AB8006368002B50D0FFF755FD0546964B1B6821
:100AC80013F4003F14D1FFF74DFD401B6428F5D9FE
:100AD80003208AE1904B5B6813F4800FD8D08E4BCB
:100AE8001B6813F4003F03D06368002B00F07A8181
:100AF800236813F0020F55D0874B9B6813F00C0F37
:100B08003ED0854B9B6803F00C03082B33D0E36879
:100B1800002B68D0814B01221A60FFF723FD0546A0
:100B28007D4B1B6813F0020F54D1FFF71BFD401BD0
:100B38000228F5D9032058E1774A136843F4803333
:100B48001360B5E7744B1A6842F480221A601A6879
:100B580042F480321A60ABE7FFF704FD05466E4B9E
:100B68001B6813F4003FC3D0FFF7FCFC401B64284C
:100B7800F5D9032039E1684B5B6813F4800FC6D1BF
:100B8800654B1B6813F0020F04D0E368012B01D0FA
:100B980001202AE1604A136823F0F803216943EA37
:100BA800C1031360236813F0080F40D0636963B36F
:100BB8005B4B01221A60FFF7D5FC0546564B5B6F6D
:100BC80013F0020F33D1FFF7CDFC401B0228F5D9F3
:100BD80003200AE1504A136823F0F803216943EA25
:100BE800C1031360DEE74D4B00221A60FFF7BAFC21
:100BF8000546494B1B6813F0020FD3D0FFF7B2FC30
:100C0800401B0228F5D90320EFE0454B00221A606B
:100C1800FFF7A8FC0546404B5B6F13F0020F06D0A8
:100C2800FFF7A0FC401B0228F5D90320DDE023686C
:100C380013F0040F79D0384B1B6C13F0805F33D15D
:100C480000230193344B1A6C42F080521A641B6CD7
:100C580003F080530193019B0125324B1B6813F469
:100C6800807F23D0A368012B34D0052B38D02A4BA2
:100C78001A6F22F001021A671A6F22F004021A672B
:100C8800A368002B36D0FFF76DFC0646224B1B6F7E
:100C980013F0020F48D1FFF765FC801B41F288333F
:100CA8009842F3D90320A0E00025D6E71D4A13682F
:100CB80043F480731360FFF755FC0646194B1B6815
:100CC80013F4807FCED1FFF74DFC801B0228F5D9A5
:100CD80003208AE0104A136F43F001031367CFE73C
:100CE8000D4B1A6F42F004021A671A6F42F00102A4
:100CF8001A67C5E7FFF736FC0646074B1B6F13F06C
:100D0800020F11D0FFF72EFC801B41F28833984266
:100D1800F3D9032069E000BF0038024000004742D1
:100D2800800E474200700040E5B9A369002B5BD0F4
:100D3800304A926802F00C02082A58D0022B17D0C9
:100D48002D4B00221A60FFF70DFC0446294B1B6847
:100D580013F0007F42D0FFF705FC001B0228F5D9ED
:100D6800032042E0234A136C23F080531364DCE72A
:100D7800214B00221A60FFF7F5FB05461D4B1B6847
:100D880013F0007F06D0FFF7EDFB401B0228F5D9D2
:100D980003202AE0E369226A1343626A43EA821362
:100DA800A26A5208013A43EA0243E26A43EA02634A
:100DB800104A5360104B01221A60FFF7D3FB044618
:100DC8000C4B1B6813F0007F06D1FFF7CBFB001B11
:100DD8000228F5D9032008E0002006E0002004E0FE
:100DE80001207047012000E0002002B070BD012002
:100DF800FBE700BF0038024060004742324B9B6867
:100E080003F00C03042B5CD0082B01D02F4870474B
:100E18002DE9F04B2C4B5A6802F03F025B6813F443
:100E2800800F2BD0284B5B68C3F388131E4600271E
:100E38005C010025E41A65EB0705A90141EA946104
:100E4800A001001B61EB0501CB0043EA5073C4000D
:100E5800A01943EB07014B0243EAD0534402204652
:100E680019460023FFF7B4F9174B5B68C3F3014336
:100E780001335B00B0FBF3F0BDE8F08B124B5B680D
:100E8800C3F388131E4600275C010025E41A65EBAE
:100E98000705A90141EA9461A001001B61EB050166
:100EA800CB0043EA5073C400A01943EB07018B023F
:100EB80043EA90538402204619460023FFF788F935
:100EC800D2E70348704700BF003802400024F4000E
:100ED80000127A00002800F09D8070B504464F4B40
:100EE8001B6803F00F038B4209D2CBB24B4A137035
:100EF800136803F00F038B4201D0012070BD2368F3
:100F080013F0020F17D013F0040F04D0444A93686B
:100F180043F4E0539360236813F0080F04D0404A69
:100F2800936843F4604393603D4A936823F0F00369
:100F3800A068034393600D46236813F0010F32D075
:100F48006368012B21D09A1E012A25D9344A1268D8
:100F580012F0020F60D032498A6822F0030213436C
:100F68008B60FFF7FFFA06462D4B9B6803F00C03D6
:100F78006268B3EB820F16D0FFF7F4FA801B41F2D8
:100F880088339842F0D90320B8E7254A126812F44A
:100F9800003FE0D10120B1E7214A126812F0007F3A
:100FA800D9D10120AAE71D4B1B6803F00F03AB4200
:100FB80009D9EAB2194B1A701B6803F00F03AB4248
:100FC80001D001209AE7236813F0040F06D0144AD1
:100FD800936823F4E053E1680B439360236813F0AC
:100FE800080F07D00E4A936823F46043216943EA47
:100FF800C1039360FFF702FF094B9B68C3F3031318
:10100800084AD35CD840084B18600020FFF760FA04
:10101800002073E70120704701206FE7003C024081
:1010280000380240E81300080C000020014B186843
:10103800704700BF0C00002008B5FFF7F7FF044B0E
:101048009B68C3F38223034AD35CD84008BD00BF22
:1010580000380240F813000830B589B00024039422
:1010680004940594069407940094194B1A6B42F063
:1010780080021A631A6B02F080020092009A0194AF
:101088001A6B42F002021A631A6B02F00202019212
:10109800019A02941A6B42F008021A631B6B03F060
:1010A80008030293029B0B4D22464FF40051284639
:1010B800FFF78CFB4FF4005303930123049305942B
:1010C800069403A92846FFF7AFFA09B030BD00BF60
:1010D80000380240000C024008B50948094B03607B
:1010E800094B436000238360C3604FF48042026170
:1010F80043618361C3610362FFF778FB08BD00BFEA
:101108003000002000580040A086010030B595B09E
:101118003022002108A800F04FF900240394049419
:1011280005940694079401941B4B1A6C42F0805264
:101138001A641B6C03F080530193019B0294174BB4
:101148001A6842F440421A601B6803F44043029351
:10115800029B012308934FF48033099302250E95CF
:101168004FF480030F9304231093C022119212931B
:101178000823139308A8FFF775FC0F23039304951E
:1011880005944FF4A05306930794032103A8FFF78F
:10119800A1FE15B030BD00BF00380240007000400D
:1011A80008B5FFF7B9F9FFF7B1FFFFF755FFFFF7EC
:1011B80093FF0123064A127810210648FFF7E6FB41
:1011C80000B1FEE74FF400510348FFF705FBF8E7CD
:1011D8000800002030000020000C024000B583B059
:1011E800002100910C4B5A6C42F480425A645A6CAC
:1011F80002F480420092009A01911A6C42F08052E7
:101208001A641B6C03F080530193019B0720FFF7BE
:10121800AFF903B05DF804FB003802402DE9F04354
:1012280089B00023039304930593069307930268F8
:101238001E4B9A4202D009B0BDE8F0830025019503
:101248001B4C236B43F002032363236B03F002035D
:101258000193019B4FF4806303934FF01209CDF87B
:1012680010904FF00108CDF8148003270697042347
:101278000793104E03A93046FFF7D6F908230393C6
:10128800CDF81090CDF8148006970923079303A989
:101298003046FFF7C9F90295236C43F480032364B1
:1012A800236C03F480030293029BC4E700580040B8
:1012B80000380240000402407047FEE7FEE7FEE700
:1012C800FEE770477047704708B5FFF73FF908BD5C
:1012D8000F49D1F8883043F47003C1F888300D4BBA
:1012E8001A6842F001021A60002098601A6822F019
:1012F800847222F480321A60074A5A601A6822F40B
:1013080080221A60D8604FF000638B60704700BF7E
:1013180000ED00E00038024010300024DFF834D03F
:10132800002103E00C4B5B58435004310B480C4B35
:1013380042189A42F6D30B4A02E0002342F8043BD3
:10134800094B9A42F9D3FFF7C3FF00F011F8FFF7F2
:1013580027FF70470000022010140008000000203A
:10136800100000201000002084000020FEE700008C
:1013780070B50D4E0D4CA41BA4100025A54209D133
:101388000B4E0C4C00F020F8A41BA4100025A5421D
:1013980005D170BD56F8253098470135EEE756F867
:1013A800253098470135F2E70814000808140008AA
:1013B800081400080C14000802440346934200D1A4
:1013C800704703F8011BF9E7F8B500BFF8BC08BC83
:1013D8009E467047F8B500BFF8BC08BC9E467047EB
:1013E80000000000000000000102030406070809CD
:0813F8000000000001020304E3
:0814000008EEFF7F010000006F
:04140800BD0100081A
:04140C00990100083A
:101410000100000010000000010000000024F400A2
:0400000508001325B7
:00000001FF
