:020000040800F2
:10000000000002206D200008F91F0008FB1F0008F7
:10001000FD1F0008FF1F000801200008000000006D
:1000200000000000000000000000000003200008A5
:100030000520000800000000072000080920000833
:10004000BD200008BD200008BD200008BD2000081C
:10005000BD200008BD200008BD200008BD2000080C
:10006000BD200008BD200008BD200008BD200008FC
:10007000BD200008BD200008BD200008BD200008EC
:10008000BD200008BD200008BD20000800000000C1
:10009000000000000000000000000000BD2000087B
:1000A000BD200008BD200008BD200008BD200008BC
:1000B000BD200008BD200008BD200008BD200008AC
:1000C000BD20000811200008BD200008BD20000848
:1000D000BD200008BD200008BD2000080000000071
:1000E000BD200008BD200008BD2000080000000061
:1000F000000000000000000000000000BD2000081B
:1001000000000000BD200008BD200008BD20000840
:1001100000000000000000000000000000000000DF
:10012000BD200008BD200008BD200008BD2000083B
:10013000BD200008000000000000000000000000DA
:10014000000000000000000000000000BD200008CA
:10015000BD200008BD200008BD200008BD2000080B
:10016000BD200008BD2000080000000000000000C5
:10017000000000000000000000000000000000007F
:1001800000000000BD20000800000000000000008A
:08019000BD200008BD2000089D
:1001980010B5054C237833B9044B13B10448AFF3B9
:1001A80000800123237010BD0C0000200000000017
:1001B8001821000808B5034B1BB103490348AFF3E6
:1001C800008008BD00000000100000201821000871
:1001D80053B94AB9002908BF00281CBF4FF0FF31A6
:1001E8004FF0FF3000F072B9ADF1080C6DE904CEA4
:1001F80000F006F8DDF804E0DDE9022304B07047FA
:100208002DE9F047089E04468846002B4BD18A42C8
:10021800154667D9B2FA82F24AB1C2F1200701FA4B
:1002280002F320FA07F7954047EA030894404FEA9B
:10023800154E230CB8FBFEF71FFA85FC0EFB17883A
:1002480043EA084307FB0CF1994209D9EB1807F177
:10025800FF3080F01B81994240F21881023F2B4405
:100268005B1AA4B2B3FBFEF00EFB103344EA03445E
:1002780000FB0CFCA44509D92C1900F1FF3380F0D0
:100288000781A44540F2048102382C4440EA074023
:10029800A4EB0C0400271EB1D4400023C6E9004398
:1002A8003946BDE8F0878B4209D9002E00F0EB8073
:1002B8000027C6E9000138463946BDE8F087B3FA99
:1002C80083F7002F47D18B4202D3824200F2FA8093
:1002D800841A61EB030301209846002EE0D0C6E99A
:1002E8000048DDE702B9FFDEB2FA82F2002A40F0E8
:1002F8008F80491B4FEA154E1FFA85F80127B1FB7D
:10030800FEFC230C0EFB1C1143EA014308FB0CF115
:10031800994207D9EB180CF1FF3002D2994200F24A
:10032800CD808446591AA3B2B1FBFEF00EFB10141F
:1003380043EA044408FB00F8A04507D92C1900F14A
:10034800FF3302D2A04500F2B6801846A4EB080499
:1003580040EA0C409FE7C7F1200CBB4022FA0CFE94
:100368004EEA030E01FA07F420FA0CF521FA0CF311
:100378004FEA1E482543B3FBF8F92C0C08FB193348
:100388001FFA8EFA44EA034309FB0AF49C4202FA74
:1003980007F200FA07F10BD91EEB030309F1FF304E
:1003A80080F087809C4240F28480A9F1020973445E
:1003B8001B1BADB2B3FBF8F008FB103345EA03444E
:1003C80000FB0AFAA24508D91EEB040400F1FF332A
:1003D8006BD2A24569D90238744440EA0940A0FBAF
:1003E8000289A4EB0A044C45C2464B4654D351D06B
:1003F800002E69D0B1EB0A0564EB030404FA0CFC87
:10040800FD40FC404CEA0505C6E90054002747E7D3
:10041800C2F1200320FA03F7954001FA02F021FA0D
:1004280003F34FEA154E3843010CB3FBFEF71FFAEE
:1004380085F80EFB173341EA034107FB08F38B42AB
:1004480004FA02F407D9691807F1FF3C2FD28B424E
:100458002DD9023F2944CB1A81B2B3FBFEF00EFB23
:10046800103341EA034100FB08F38B4207D96918AE
:1004780000F1FF3C17D28B4215D902382944C91A1A
:1004880040EA07473BE73746304609E70746E7E6CD
:100498001846FBE64145ABD2B8EB020A69EB0E02FF
:1004A80001381346A4E76046E9E7184695E767462A
:1004B800D1E781467CE702382C4447E7ACF1020CCF
:1004C8002B442FE7384608E73746E9E6704700BF70
:1004D80010B504460E4B18784FF47A73B3FBF0F35B
:1004E8000C4A1068B0FBF3F000F096F868B90F2CCE
:1004F80001D901200AE0002221464FF0FF3000F028
:1005080049F8034B5C60002000E0012010BD00BFEB
:10051800000000200800002008B50B4B1A6842F4C0
:1005280000721A601A6842F480621A601A6842F40B
:1005380080721A60032000F01BF80020FFF7C8FF44
:1005480001F0E0FC002008BD003C0240034A1168AD
:10055800034B1B780B441360704700BF2800002032
:1005680000000020014B1868704700BF28000020D9
:10057800074AD36823F4E0631B041B0C000200F451
:10058800E060184340F0BF6040F40030D06070472E
:1005980000ED00E030B4174BDB68C3F30223C3F16E
:1005A8000704042C28BF04241D1D062D18D9033B5D
:1005B8004FF0FF3505FA04F421EA0401994005FAE1
:1005C80003F322EA0303194300280BDB0901C9B22C
:1005D80000F1604000F5614080F8001330BC7047BE
:1005E8000023E5E700F00F000901C9B2024B1954D6
:1005F800F4E700BF00ED00E014ED00E0002807DBA1
:1006080000F01F02400901239340024A42F82030BB
:10061800704700BF00E100E00138B0F1807F0AD2E6
:10062800064B5860064AF02182F823100020986093
:1006380007221A6070470120704700BF10E000E0F1
:1006480000ED00E090F83530DBB2022B03D08023B8
:10065800436501207047052380F835300268136828
:1006680023F0010313600020704790F835007047AD
:1006780000230F2B00F2C580F0B482B039E00422C9
:1006880000E00022B2403A4302345E4E46F824208D
:100698005D4A1468EA4302EA04064F6817F4803F8B
:1006A80001D045EA0406584C2660646802EA04064C
:1006B8004F6817F4003F01D045EA0406524C6660C3
:1006C800A46802EA04064F6817F4801F01D045EABF
:1006D80004064D4CA660E46822404E6816F4001FDC
:1006E80001D045EA0402484CE26001330F2B00F2C6
:1006F800858001229A400C6804EA0205AA42F4D1D6
:100708004C68022C01D0122C10D1DE08083650F8A3
:1007180026C003F00704A7000F24BC402CEA040CF1
:100728000C69BC4044EA0C0440F8264004685F00A9
:100738000326BE40F64306EA040C4C6804F00304A2
:10074800BC4044EA0C0404604C6804F1FF3CBCF172
:10075800010F03D9112C01D0122C10D1846806EA9C
:10076800040CCC68BC4044EA0C048460446824EA65
:1007780002024C68C4F300149C4014434460C268ED
:1007880016408A68BA403243C2604A6812F0805FF5
:10079800ABD0002201921D4A546C44F48044546446
:1007A800526C02F480420192019A9C08A61C154AD8
:1007B80052F8267003F0030296000F22B24027EA8F
:1007C8000207134A90423FF45CAF02F58062904200
:1007D8000ED002F5806290420CD002F58062904201
:1007E8000AD002F5806290423FF449AF072249E7F8
:1007F800012247E7022245E7032243E702B0F0BCA3
:100808007047704700380140003C01400038024002
:100818000000024012B90904816170478161704784
:10082800436931EA030301D081617047090481619A
:10083800704790F83E30DBB2402B0AD00369B3F51D
:10084800804F15D0036D002B36D0036D012B3DD0A2
:100858007047036D2BB9436C026803F0FE03136104
:100868007047436C026843F00103DBB213617047C1
:1008780090F83D30DBB2212B0FD0436C026843F077
:100888000103DBB21361436B6BB1DB6B7BB10268B5
:10089800536843F4006353607047436C026803F085
:1008A800FE031361EFE7826B002AEED1D0E7836B7A
:1008B800DB6B002BEBD1CBE7436CC3F3C8130268A7
:1008C80003F0060343F0F00313617047436CC3F36E
:1008D800C813026803F0060343F0F1031361B7E796
:1008E800436C0268DBB21361436B3BB1DB6B4BB10A
:1008F8000268536843F4006353607047826B002AB0
:10090800F4D1FAE7836BDB6B002BF1D1F5E710B478
:100918008BB090F83E30DAB2C16A046B90F83D3083
:10092800DBB2222B0BD00023099303685A69099282
:100938009B690993099B0BB05DF8044B7047036DE5
:100948000BB9402A17D0036D1BB90369B3F5404FA3
:1009580019D0438D9BB2002B25D1029303685A69A5
:1009680002929A690292029A1A6842F400721A6014
:1009780000230365DFE7009303685A6900929B69C7
:100988000093009BD7E70023019303685A690192FB
:100998009A690192019A1A6842F480721A60036D8A
:1009A80001330365C7E7438D9BB2012B25D0438DE7
:1009B8009BB2022B7BD00268136843F480631360F8
:1009C80003685A6812F4006F0ED011F5803F07D003
:1009D800012905D0082903D0102901D0202903D1E5
:1009E8005A6842F480525A600023089303685A698F
:1009F80008929B690893089BBAE711F5803F11D0CC
:100A0800082934D0202932D0122C2ED0042940D0E5
:100A180002293ED010293CD00268136823F4806371
:100A280013603BE00268136823F480631360036873
:100A38005A6812F4006F0CD01A6822F480621A60A7
:100A48000023039303685A6903929B690393039BEA
:100A58008EE7002204925A6904929A690492049AD1
:100A68001A6842F400721A6082E70129CED002683F
:100A7800136823F4806313600023069303685A699C
:100A880006929A690692069A1A6842F400721A60E7
:100A98006EE70268136843F48063136000230593CC
:100AA80003685A6905929B690593059B60E70429C9
:100AB8000ED002290CD010290AD00268136823F43A
:100AC800806313600268136843F40063136004E0F2
:100AD8000268136843F48063136003685A6812F469
:100AE800006F0ED011F5803F07D0012905D00829E5
:100AF80003D0102901D0202903D15A6842F480522A
:100B08005A600023079303685A6907929B69079301
:100B1800079B2DE7438D9BB253B1426A0368127855
:100B28001A61436A01334362438D013B9BB243859B
:100B38007047438D9BB253B103681A69436A1A70B0
:100B4800436A01334362438D013B9BB2438570473F
:100B5800C36AB3F52A0F04D0C36AB3F12A4F03D08E
:100B680070470123C36270470823C362F8E7000097
:100B7800002800F0BE80F8B5044690F83D30002B00
:100B88006BD0242384F83D302268136823F00103D6
:100B9800136001F0BFF86268584B9A4262D8584B0C
:100BA80098428CBF00230123002B40F0A480554BB2
:100BB800A3FB00239B0C21684A6822F03F021A43DA
:100BC8004A6025682A6A22F03F0266684B498E42CD
:100BD8004ED8013313432B622568E96921F44F414C
:100BE80021F0FF016368454A93424BD801385B0006
:100BF800B0FBF3F30133C3F30B03042B38BF042317
:100C08000B43EB6121680B6823F0C003E269206A9B
:100C1800024313430B6021688B6823F4034323F0DA
:100C2800FF032269E068024313438B602168CB68A5
:100C380023F0FF036269A06902431343CB60226873
:100C4800136843F00103136000202064202384F814
:100C58003D30206384F83E00F8BD80F83C3001F058
:100C680071F98EE7284B98428CBF002301239BE73C
:100C78004FF4967101FB03F32449A1FB03139B096D
:100C88000133A7E7A268BAB9461E03EB4307B6FBD0
:100C9800F7F60136C6F30B06B6FA86F6760936BBC2
:100CA800C2B9013803EB4303B0FBF3F30133C3F3D9
:100CB8000B0242F40043A3E7461E03EB830707EB4E
:100CC8008707B6FBF7F60136C6F30B06B6FA86F6C3
:100CD8007609E4E7013803EB830303EB8303B0FBF6
:100CE800F3F20132C2F30B0242F4404388E70123D6
:100CF80086E7012070470120AEE700BFA08601000B
:100D08007F841E0083DE1B43FF083D00D34D621025
:100D180090F83D30DBB2202B37D1002937D0002A9C
:100D280037D090F83C30012B35D010B4012380F82F
:100D38003C3003681C6814F0010F03D11C6844F0B0
:100D480001041C600468236823F4006323602223E1
:100D580080F83D30202380F83E3000230364416250
:100D68004285428D02850D4AC26201680A6842F4D2
:100D780080620A6080F83C3001684A6842F4E062A8
:100D88004A6018465DF8044B7047022070470120FE
:100D98007047012070470220704700BF0000FFFF26
:100DA80070477047704708B590F83D30DAB2438D08
:100DB8009BB27BB1416A036809781961436A0133C0
:100DC8004362438D013B9BB24385438D9BB20BB974
:100DD800292A00D008BD0268536823F48063536051
:100DE80021230363282380F83D30FFF7DBFFF1E779
:100DF80008B590F83D30DAB2438D9BB27BB10368F9
:100E08001969436A1970436A01334362438D013B90
:100E18009BB24385438D9BB20BB92A2A00D008BDEB
:100E28000268536823F480635360222303632823F2
:100E380080F83D3000F0F8FFF1E7704708B590F80A
:100E48003D3003F02803282B07D003686FF0020217
:100E58005A61002380F83C3008BD0268536823F4C7
:100E68008063536011F0040F0BD0002311F0800F42
:100E780009D18289002180F83C101946FFF7DDFF6F
:100E8800EAE70123F2E7028BF4E77047704710B5F1
:100E980090F83D30DBB290F83E20D2B2C46A018DA2
:100EA80009B9212B04D0212B3BD0402A37D010BDC3
:100EB800082C04D0202C02D014F5803F19D10268E8
:100EC800536823F4E06353600268136843F40073C3
:100ED800136000230363202380F83D3090F83E30F0
:100EE800DBB2402B15D0002380F83E30FFF758FFC7
:100EF800DDE70268536823F4E0635360112303635A
:100F0800002380F83E30202380F83D30FFF748FF6B
:100F1800CDE7002380F83E30FFF7B8FFC7E7222B64
:100F2800C5D1438D9BB283B190F83E30DBB2402BE4
:100F380011D0426A036812781A61436A0133436226
:100F4800438D013B9BB24385B1E70268536823F4A4
:100F580080635360ABE7036D9BB9C36C012B08D06A
:100F6800836CC3F3072302681361036D01330365C0
:100F78009DE7836C0268DBB21361036D023303657E
:100F880095E7036D012B18D0036D022B8FD190F8D4
:100F98003D30DBB2222B18D090F83D30DBB2212B4C
:100FA80085D1426A036812781A61436A0133436241
:100FB800438D013B9BB2438579E7836C0268DBB2C2
:100FC8001361036D0133036571E70268136843F425
:100FD800807313606BE708B5C26A90F83D30DBB2E6
:100FE800212B00D008BD438D9BB203BB082A04D037
:100FF800202A02D012F5803F25D10268536823F4D5
:10100800E06353600268136843F4007313600023BD
:101018000363202380F83D3090F83E30DBB2402B4C
:1010280021D0002380F83E30FFF7BAFEDAE7426AA3
:10103800036812781A61436A01334362438D013BA6
:101048009BB24385CEE70268536823F4E06353609C
:1010580011230363002380F83E30202380F83D30BD
:10106800FFF79EFEBEE7002380F83E30FFF70EFF35
:10107800B8E7704708B590F83D30DBB2222B00D0B6
:1010880008BD438D9BB2032B14D903681A69436AC0
:101098001A70436A01334362438D013B9BB2438517
:1010A800438D9BB2032BEBD10268536823F4806312
:1010B8005360E5E7C26A022AE2D0012BE0D8026851
:1010C800136823F4806313600268536823F4E063B1
:1010D800536003681A69436A1A70436A01334362AA
:1010E800438D013B9BB24385202380F83D3090F827
:1010F8003E30DBB2402B07D0002380F83E3012236D
:101108000363FFF74EFEBBE7002380F83E3003631E
:10111800FFF7AFFFB4E708B5C26A438D9BB2042B53
:1011280013D0438D9BB2032B20D0438D9BB2022B4F
:1011380036D003681A69436A1A70436A01334362F6
:10114800438D013B9BB243850FE00268536823F44B
:101158008063536003681A69436A1A70436A0133EB
:101168004362438D013B9BB2438508BD01684B68D0
:1011780023F480634B60042A06D0022A04D0026854
:10118800136823F48063136003681A69436A1A704A
:10119800436A01334362438D013B9BB24385E4E7D5
:1011A800012A0BD0102A09D0042A36D0022A34D0BA
:1011B8000268136843F40073136004E0026813685C
:1011C80023F48063136003681A69436A1A70426AD9
:1011D800531C4362438D013B9BB2438503681B69E3
:1011E8005370436A01334362438D013B9BB243858D
:1011F8000268536823F440735360202380F83D301D
:1012080090F83E30DBB2402B0DD0002380F83E3002
:1012180012230363FFF7C5FDA7E70268136843F4C9
:1012280080631360CFE7002380F83E300363FFF745
:1012380020FF9AE77047704710B5806B90F83D2003
:10124800416B0023CB63816BCB630468216821F475
:10125800806121604385416B0B65816B0B6501687B
:101268000B6823F001030B6090F83D30DBB2602B74
:101278000DD0D2B202F02802282A12D0202380F8FA
:101288003D30002380F83E30FFF7D4FF10BD202307
:1012980080F83D30002380F83E300364FFF7CBFF31
:1012A800F4E70268136843F00103136002681368E7
:1012B80043F48063136000230363282380F83D30E0
:1012C800E2E7000010B5044690F83D30DBB290F834
:1012D8003E20D2B2102A33D003F02802282A37D071
:1012E8002268526812F4006F04D1602B02D02023C8
:1012F80084F83D300023236384F83E3023685A681D
:1013080012F4006F48D05A6822F400625A60626B87
:1013180092F83530DBB2012B20D0424B1365606B5D
:10132800FFF790F9002849D02268136823F00103D9
:101338001360202384F83D30606B036D98473DE0CF
:10134800222BC9D101680A6822F400620A60C3E747
:1013580000232363282384F83D30CFE7A36B314A69
:101368001A65A06BFFF76EF940B323685A6912F04B
:10137800400F05D01A69636A1A70636A01336362A1
:101388002268136823F001031360202384F83D309A
:10139800A06B036D984711E094F83D20D2B2602A03
:1013A80016D05A6912F0400F05D01A69636A1A708C
:1013B800636A013363622046FFF73CFF94F83D30CF
:1013C800DBB2226C12F0040F01D0282B18D010BD0C
:1013D800202284F83D20002222645A6912F0400F2E
:1013E80005D01A69636A1A70636A013363622268F6
:1013F800136823F0010313602046FFF71CFFDDE7A5
:101408002268536823F4E0635360074BE3620023C8
:101418002363202284F83D2084F83E302046FFF7DD
:1014280034FDD4E7411200080000FFFF30B583B057
:10143800044690F83D50EDB20268536823F4E06327
:1014480053600023019303685A6901921A6842F0B5
:1014580001021A60019B0268136823F48063136019
:1014680003685A6812F4006F38D0222D21D02A2D33
:101478001FD0426B1268526892B24285428D92B276
:101488001AB1026C42F0040202645A6822F4006243
:101498005A60606BFFF7E9F801281FD0636B434A75
:1014A8001A65606BFFF7CEF8C0B1606B036D9847A3
:1014B80014E0A26B1268526892B26285628D92B291
:1014C8001AB1226C42F0040222645A6822F40062C3
:1014D8005A60A06BFFF7C9F8012840D1638D9BB211
:1014E80023B323685A6912F0040F09D01A69636A92
:1014F8001A70636A01336362638D013B9BB2638533
:1015080023685A6912F0400F09D01A69636A1A7081
:10151800636A01336362638D013B9BB26385638DAC
:101528009BB21BB1236C43F004032364236C13BBED
:101538002A2D25D094F83D30DBB2282B29D0236BF7
:10154800222B01D0222D19D100232363202284F8D5
:101558003D2084F83E30204600F066FC0EE0A36B88
:10156800124A1A65A06BFFF76DF80028B6D0A06B79
:10157800036D9847B2E72046FFF7A4FE03B030BDDD
:1015880000232363282384F83D30204600F04CFCD8
:10159800D0E7074BE36200232363202284F83D2031
:1015A80084F83E302046FFF770FCE7E74112000858
:1015B8000000FFFF70B5044602685568C66A90F8D7
:1015C8003E30DBB290F83D10102B14D0C8B2402B3F
:1015D80011D0236C002B71D05369002113F0020F36
:1015E8006FD015F4007F6CD0236C03B1916920464D
:1015F800FFF724FC70BD9069536913F0010105D110
:10160800B6F52A0FF6D0B6F12A4FF3D011B115F47A
:10161800007F25D113F0080F02D015F4007F26D1E2
:1016280013F0020F02D015F4007F24D110F0040F3C
:1016380029D0526812F4006FDCD113F0800F05D066
:1016480015F4806F02D013F0040F18D013F0040FB4
:10165800D0D015F4007FCDD02046FFF7BCFCC9E7F9
:101668002046FFF775FA2046FFF7E3F8C2E7204661
:10167800FFF736F9BEE72046FFF749F9BAE72046F3
:10168800FFF705FCB6E7526812F4006FB2D113F009
:10169800400F05D015F4806F02D013F0040F09D065
:1016A80013F0040FA6D015F4007FA3D02046FFF74F
:1016B80032FD9FE72046FFF7DDFC9BE79169536900
:1016C8008CE713F0100F02D015F4007F17D12128F2
:1016D80019D0292817D013F0400F05D015F4806FC2
:1016E80002D013F0040F27D013F0040F82D015F4A2
:1016F800007F3FF47FAF2046FFF71BFA7AE72046CA
:10170800FFF794FE76E713F0800F05D015F4806F8D
:1017180002D013F0040F0BD013F0040F3FF46AAF9C
:1017280015F4007F3FF466AF2046FFF7F3F961E751
:101738002046FFF738FB5DE72046FFF759FB59E7DE
:10174800002800F0BB8170B582B00446036813F02E
:10175800010F3BD0A74B9B6803F00C03042B2CD044
:10176800A44B9B6803F00C03082B21D06368B3F5E6
:10177800803F4FD0B3F5A02F52D09E4B1A6822F469
:1017880080321A601A6822F480221A606368002B7B
:1017980050D0FEF7E7FE0546964B1B6813F4003F52
:1017A80014D1FEF7DFFE401B6428F5D903208AE137
:1017B800904B5B6813F4800FD8D08E4B1B6813F4E2
:1017C800003F03D06368002B00F07A81236813F090
:1017D800020F55D0874B9B6813F00C0F3ED0854BFA
:1017E8009B6803F00C03082B33D0E368002B68D008
:1017F800814B01221A60FEF7B5FE05467D4B1B683A
:1018080013F0020F54D1FEF7ADFE401B0228F5D9A4
:10181800032058E1774A136843F480331360B5E72F
:10182800744B1A6842F480221A601A6842F48032B3
:101838001A60ABE7FEF796FE05466E4B1B6813F47D
:10184800003FC3D0FEF78EFE401B6428F5D9032065
:1018580039E1684B5B6813F4800FC6D1654B1B6890
:1018680013F0020F04D0E368012B01D001202AE114
:10187800604A136823F0F803216943EAC10313603F
:10188800236813F0080F40D0636963B35B4B0122F0
:101898001A60FEF767FE0546564B5B6F13F0020FA2
:1018A80033D1FEF75FFE401B0228F5D903200AE179
:1018B800504A136823F0F803216943EAC10313600F
:1018C800DEE74D4B00221A60FEF74CFE0546494BF9
:1018D8001B6813F0020FD3D0FEF744FE401B02280A
:1018E800F5D90320EFE0454B00221A60FEF73AFED7
:1018F8000546404B5B6F13F0020F06D0FEF732FE31
:10190800401B0228F5D90320DDE0236813F0040FFB
:1019180079D0384B1B6C13F0805F33D100230193CF
:10192800344B1A6C42F080521A641B6C03F08053DB
:101938000193019B0125324B1B6813F4807F23D050
:10194800A368012B34D0052B38D02A4B1A6F22F00C
:1019580001021A671A6F22F004021A67A368002BA3
:1019680036D0FEF7FFFD0646224B1B6F13F0020F21
:1019780048D1FEF7F7FD801B41F288339842F3D92E
:101988000320A0E00025D6E71D4A136843F48073BE
:101998001360FEF7E7FD0646194B1B6813F4807FBA
:1019A800CED1FEF7DFFD801B0228F5D903208AE09F
:1019B800104A136F43F001031367CFE70D4B1A6FFB
:1019C80042F004021A671A6F42F001021A67C5E76B
:1019D800FEF7C8FD0646074B1B6F13F0020F11D028
:1019E800FEF7C0FD801B41F288339842F3D90320EB
:1019F80069E000BF0038024000004742800E4742BD
:101A080000700040E5B9A369002B5BD0304A9268AA
:101A180002F00C02082A58D0022B17D02D4B0022B6
:101A28001A60FEF79FFD0446294B1B6813F0007FE0
:101A380042D0FEF797FD001B0228F5D9032042E0AB
:101A4800234A136C23F080531364DCE7214B0022F4
:101A58001A60FEF787FD05461D4B1B6813F0007FD3
:101A680006D0FEF77FFD401B0228F5D903202AE0A7
:101A7800E369226A1343626A43EA8213A26A52083C
:101A8800013A43EA0243E26A43EA0263104A5360B6
:101A9800104B01221A60FEF765FD04460C4B1B68CB
:101AA80013F0007F06D1FEF75DFD001B0228F5D973
:101AB800032008E0002006E0002004E00120704731
:101AC800012000E0002002B070BD0120FBE700BF4C
:101AD8000038024060004742324B9B6803F00C0319
:101AE800042B5CD0082B01D02F4870472DE9F04B10
:101AF8002C4B5A6802F03F025B6813F4800F2BD01E
:101B0800284B5B68C3F388131E4600275C01002539
:101B1800E41A65EB0705A90141EA9461A001001BDD
:101B280061EB0501CB0043EA5073C400A01943EBF5
:101B380007014B0243EAD0534402204619460023CA
:101B4800FEF746FB174B5B68C3F3014301335B00A9
:101B5800B0FBF3F0BDE8F08B124B5B68C3F388135E
:101B68001E4600275C010025E41A65EB0705A9015C
:101B780041EA9461A001001B61EB0501CB0043EA37
:101B88005073C400A01943EB07018B0243EA90533A
:101B98008402204619460023FEF71AFBD2E70348C1
:101BA800704700BF003802400024F40000127A0099
:101BB800002800F09D8070B504464F4B1B6803F069
:101BC8000F038B4209D2CBB24B4A1370136803F050
:101BD8000F038B4201D0012070BD236813F0020F60
:101BE80017D013F0040F04D0444A936843F4E05329
:101BF8009360236813F0080F04D0404A936843F4B5
:101C0800604393603D4A936823F0F003A068034360
:101C180093600D46236813F0010F32D06368012BDF
:101C280021D09A1E012A25D9344A126812F0020FCF
:101C380060D032498A6822F0030213438B60FEF7B2
:101C480091FC06462D4B9B6803F00C036268B3EBCE
:101C5800820F16D0FEF786FC801B41F2883398422B
:101C6800F0D90320B8E7254A126812F4003FE0D102
:101C78000120B1E7214A126812F0007FD9D1012072
:101C8800AAE71D4B1B6803F00F03AB4209D9EAB260
:101C9800194B1A701B6803F00F03AB4201D00120E7
:101CA8009AE7236813F0040F06D0144A936823F4C4
:101CB800E053E1680B439360236813F0080F07D0E3
:101CC8000E4A936823F46043216943EAC103936091
:101CD800FFF702FF094B9B68C3F30313084AD35C61
:101CE800D840084B18600020FEF7F2FB002073E78D
:101CF8000120704701206FE7003C02400038024095
:101D08003021000808000020014B1868704700BF08
:101D18000800002008B5FFF7F7FF044B9B68C3F3E2
:101D28008223034AD35CD84008BD00BF0038024074
:101D38004021000830B589B0002403940494059428
:101D4800069407940094194B1A6B42F080021A63A8
:101D58001A6B02F080020092009A01941A6B42F00A
:101D680002021A631A6B02F002020192019A0294AB
:101D78001A6B42F008021A631B6B03F00803029304
:101D8800029B0B4D22464FF400512846FEF742FDB8
:101D98004FF400530393012304930594069403A975
:101DA8002846FEF765FC09B030BD00BF0038024088
:101DB800000C024010B582B01748184B0360184B4E
:101DC8004360002484601023C3604FF480430361A0
:101DD80044618461C4610462FEF7CAFE0194114B38
:101DE8001A6C42F480021A641B6C03F4800301939A
:101DF800019B224621462120FEF7CCFB2120FEF73D
:101E0800FDFB224621462220FEF7C4FB2220FEF7D6
:101E1800F5FB02B010BD00BF2C00002000580040A8
:101E2800A08601000038024008B5054B1B78372B07
:101E380000D008BD4FF400510248FEF7F1FCF8E766
:101E480080000020000C024030B595B030220021FF
:101E580008A800F055F90024039404940594069406
:101E6800079401941B4B1A6C42F080521A641B6C45
:101E780003F080530193019B0294174B1A6842F4B4
:101E880040421A601B6803F440430293029B0123FB
:101E980008934FF48033099302250E954FF480037D
:101EA8000F9304231093C0221192129308231393C3
:101EB80008A8FFF745FC0F230393049505944FF4F6
:101EC800A05306930794032103A8FFF771FE15B0EA
:101ED80030BD00BF003802400070004008B5FEF772
:101EE8001BFBFFF7B1FFFFF725FFFFF763FF012299
:101EF80002490348FEF70CFFF9E700BF8000002005
:101F08002C00002000B583B0002100910C4B5A6CC6
:101F180042F480425A645A6C02F480420092009A59
:101F280001911A6C42F080521A641B6C03F08053C2
:101F38000193019B0720FEF71BFB03B05DF804FB30
:101F4800003802402DE9F04389B00023039304933D
:101F58000593069307930268224B9A4202D009B070
:101F6800BDE8F083002501951F4C236B43F0020365
:101F78002363236B03F002030193019B4FF48063F7
:101F880003934FF01209CDF810904FF00108CDF8E7
:101F980014800327069704230793144E03A9304699
:101FA800FEF766FB08230393CDF81090CDF8148054
:101FB80006970923079303A93046FEF759FB0295B4
:101FC800236C43F480032364236C03F4800302939B
:101FD800029B2A4629462120FEF7DCFA2120FEF73B
:101FE8000DFBBCE7005800400038024000040240E6
:101FF8007047FEE7FEE7FEE7FEE770477047704769
:1020080008B5FEF7A3FA08BD08B50248FFF7D2FAEB
:1020180008BD00BF2C0000200F49D1F8883043F4D8
:102028007003C1F888300D4B1A6842F001021A603B
:10203800002098601A6822F0847222F480321A60B4
:10204800074A5A601A6822F480221A60D8604FF052
:1020580000638B60704700BF00ED00E0003802406D
:1020680010300024DFF834D0002103E00C4B5B581B
:10207800435004310B480C4B42189A42F6D30B4A92
:1020880002E0002342F8043B094B9A42F9D3FFF7D8
:10209800C3FF00F011F8FFF721FF7047000002208E
:1020A80058210008000000200C0000200C0000202F
:1020B80084000020FEE7000070B50D4E0D4CA41BF7
:1020C800A4100025A54209D10B4E0C4C00F020F8B5
:1020D800A41BA4100025A54205D170BD56F82530D3
:1020E80098470135EEE756F8253098470135F2E76D
:1020F80050210008502100085021000854210008F0
:1021080002440346934200D1704703F8011BF9E7E4
:10211800F8B500BFF8BC08BC9E467047F8B500BFCC
:08212800F8BC08BC9E4670479C
:102130000000000000000000010203040607080977
:0821400000000000010203048D
:08214800C0E0FF7F0100000070
:04215000BD010008C5
:0421540099010008E5
:0C21580001000000100000000024F40052
:040000050800206D62
:00000001FF
