:020000040800F2
:100000000000022099140008351400083714000875
:10001000391400083B1400083D14000800000000DB
:100020000000000000000000000000003F14000875
:1000300041140008000000004314000845140008A3
:10004000E9140008E9140008E9140008E91400089C
:10005000E9140008E9140008E9140008E91400088C
:10006000E9140008E9140008E9140008E91400087C
:10007000E9140008E9140008E9140008E91400086C
:10008000E9140008E9140008E91400080000000061
:10009000000000000000000000000000E91400085B
:1000A000E9140008E9140008E9140008E91400083C
:1000B000E9140008E9140008E9140008E91400082C
:1000C000E9140008E9140008E9140008E91400081C
:1000D000E9140008E9140008E91400080000000011
:1000E000E9140008E9140008E91400080000000001
:1000F000000000000000000000000000E9140008FB
:1001000000000000E9140008E9140008E9140008E0
:1001100000000000000000000000000000000000DF
:10012000E9140008E9140008E9140008E9140008BB
:10013000E9140008000000000000000000000000BA
:10014000000000000000000000000000E9140008AA
:10015000E9140008E9140008E9140008E91400088B
:10016000E9140008E9140008000000000000000085
:10017000000000000000000000000000000000007F
:1001800000000000E914000800000000000000006A
:08019000E9140008E91400085D
:1001980010B5054C237833B9044B13B10448AFF3B9
:1001A80000800123237010BD0C0000200000000017
:1001B8004415000808B5034B1BB103490348AFF3C6
:1001C800008008BD00000000100000204415000851
:1001D80053B94AB9002908BF00281CBF4FF0FF31A6
:1001E8004FF0FF3000F072B9ADF1080C6DE904CEA4
:1001F80000F006F8DDF804E0DDE9022304B07047FA
:100208002DE9F047089E04468846002B4BD18A42C8
:10021800154667D9B2FA82F24AB1C2F1200701FA4B
:1002280002F320FA07F7954047EA030894404FEA9B
:10023800154E230CB8FBFEF71FFA85FC0EFB17883A
:1002480043EA084307FB0CF1994209D9EB1807F177
:10025800FF3080F01B81994240F21881023F2B4405
:100268005B1AA4B2B3FBFEF00EFB103344EA03445E
:1002780000FB0CFCA44509D92C1900F1FF3380F0D0
:100288000781A44540F2048102382C4440EA074023
:10029800A4EB0C0400271EB1D4400023C6E9004398
:1002A8003946BDE8F0878B4209D9002E00F0EB8073
:1002B8000027C6E9000138463946BDE8F087B3FA99
:1002C80083F7002F47D18B4202D3824200F2FA8093
:1002D800841A61EB030301209846002EE0D0C6E99A
:1002E8000048DDE702B9FFDEB2FA82F2002A40F0E8
:1002F8008F80491B4FEA154E1FFA85F80127B1FB7D
:10030800FEFC230C0EFB1C1143EA014308FB0CF115
:10031800994207D9EB180CF1FF3002D2994200F24A
:10032800CD808446591AA3B2B1FBFEF00EFB10141F
:1003380043EA044408FB00F8A04507D92C1900F14A
:10034800FF3302D2A04500F2B6801846A4EB080499
:1003580040EA0C409FE7C7F1200CBB4022FA0CFE94
:100368004EEA030E01FA07F420FA0CF521FA0CF311
:100378004FEA1E482543B3FBF8F92C0C08FB193348
:100388001FFA8EFA44EA034309FB0AF49C4202FA74
:1003980007F200FA07F10BD91EEB030309F1FF304E
:1003A80080F087809C4240F28480A9F1020973445E
:1003B8001B1BADB2B3FBF8F008FB103345EA03444E
:1003C80000FB0AFAA24508D91EEB040400F1FF332A
:1003D8006BD2A24569D90238744440EA0940A0FBAF
:1003E8000289A4EB0A044C45C2464B4654D351D06B
:1003F800002E69D0B1EB0A0564EB030404FA0CFC87
:10040800FD40FC404CEA0505C6E90054002747E7D3
:10041800C2F1200320FA03F7954001FA02F021FA0D
:1004280003F34FEA154E3843010CB3FBFEF71FFAEE
:1004380085F80EFB173341EA034107FB08F38B42AB
:1004480004FA02F407D9691807F1FF3C2FD28B424E
:100458002DD9023F2944CB1A81B2B3FBFEF00EFB23
:10046800103341EA034100FB08F38B4207D96918AE
:1004780000F1FF3C17D28B4215D902382944C91A1A
:1004880040EA07473BE73746304609E70746E7E6CD
:100498001846FBE64145ABD2B8EB020A69EB0E02FF
:1004A80001381346A4E76046E9E7184695E767462A
:1004B800D1E781467CE702382C4447E7ACF1020CCF
:1004C8002B442FE7384608E73746E9E6704700BF70
:1004D80010B504460E4B18784FF47A73B3FBF0F35B
:1004E8000C4A1068B0FBF3F000F09CF868B90F2CC8
:1004F80001D901200AE0002221464FF0FF3000F028
:100508005DF8034B5C60002000E0012010BD00BFD7
:10051800000000200800002008B50B4B1A6842F4C0
:1005280000721A601A6842F480621A601A6842F40B
:1005380080721A60032000F02FF80020FFF7C8FF30
:1005480000F00EFF002008BD003C0240034A11687D
:10055800034B1B780B441360704700BF2800002032
:1005680000000020014B1868704700BF28000020D9
:1005780038B50446FFF7F6FF0546B4F1FF3F02D051
:10058800044B1B781C44FFF7EDFF401BA042FAD335
:1005980038BD00BF00000020074AD36823F4E06399
:1005A8001B041B0C000200F4E060184340F0BF601D
:1005B80040F40030D060704700ED00E030B4174BD5
:1005C800DB68C3F30223C3F10704042C28BF042407
:1005D8001D1D062D18D9033B4FF0FF3505FA04F40D
:1005E80021EA0401994005FA03F322EA03031943B7
:1005F80000280BDB0901C9B200F1604000F5614039
:1006080080F8001330BC70470023E5E700F00F00C6
:100618000901C9B2024B1954F4E700BF00ED00E02C
:1006280014ED00E00138B0F1807F0AD2064B586023
:10063800064AF02182F823100020986007221A60E9
:1006480070470120704700BF10E000E000ED00E0B7
:1006580000230F2B00F2C580F0B482B039E00422E9
:1006680000E00022B2403A4302345E4E46F82420AD
:100678005D4A1468EA4302EA04064F6817F4803FAB
:1006880001D045EA0406584C2660646802EA04066C
:100698004F6817F4003F01D045EA0406524C6660E3
:1006A800A46802EA04064F6817F4801F01D045EADF
:1006B80004064D4CA660E46822404E6816F4001FFC
:1006C80001D045EA0402484CE26001330F2B00F2E6
:1006D800858001229A400C6804EA0205AA42F4D1F6
:1006E8004C68022C01D0122C10D1DE08083650F8C4
:1006F80026C003F00704A7000F24BC402CEA040C12
:100708000C69BC4044EA0C0440F8264004685F00C9
:100718000326BE40F64306EA040C4C6804F00304C2
:10072800BC4044EA0C0404604C6804F1FF3CBCF192
:10073800010F03D9112C01D0122C10D1846806EABC
:10074800040CCC68BC4044EA0C048460446824EA85
:1007580002024C68C4F300149C4014434460C2680D
:1007680016408A68BA403243C2604A6812F0805F15
:10077800ABD0002201921D4A546C44F48044546466
:10078800526C02F480420192019A9C08A61C154AF8
:1007980052F8267003F0030296000F22B24027EAAF
:1007A8000207134A90423FF45CAF02F58062904220
:1007B8000ED002F5806290420CD002F58062904221
:1007C8000AD002F5806290423FF449AF072249E718
:1007D800012247E7022245E7032243E702B0F0BCC3
:1007E8007047704700380140003C01400038024023
:1007F80000000240002800F0BB8170B582B00446BA
:10080800036813F0010F3BD0A74B9B6803F00C0360
:10081800042B2CD0A44B9B6803F00C03082B21D08D
:100828006368B3F5803F4FD0B3F5A02F52D09E4BED
:100838001A6822F480321A601A6822F480221A6038
:100848006368002B50D0FFF78DFE0546964B1B685A
:1008580013F4003F14D1FFF785FE401B6428F5D937
:1008680003208AE1904B5B6813F4800FD8D08E4B3D
:100878001B6813F4003F03D06368002B00F07A81F3
:10088800236813F0020F55D0874B9B6813F00C0FA9
:100898003ED0854B9B6803F00C03082B33D0E368EC
:1008A800002B68D0814B01221A60FFF75BFE0546DA
:1008B8007D4B1B6813F0020F54D1FFF753FE401B0A
:1008C8000228F5D9032058E1774A136843F48033A6
:1008D8001360B5E7744B1A6842F480221A601A68EC
:1008E80042F480321A60ABE7FFF73CFE05466E4BD8
:1008F8001B6813F4003FC3D0FFF734FE401B642885
:10090800F5D9032039E1684B5B6813F4800FC6D131
:10091800654B1B6813F0020F04D0E368012B01D06C
:1009280001202AE1604A136823F0F803216943EAA9
:10093800C1031360236813F0080F40D0636963B3E1
:100948005B4B01221A60FFF70DFE0546564B5B6FA5
:1009580013F0020F33D1FFF705FE401B0228F5D92B
:1009680003200AE1504A136823F0F803216943EA97
:10097800C1031360DEE74D4B00221A60FFF7F2FD5A
:100988000546494B1B6813F0020FD3D0FFF7EAFD69
:10099800401B0228F5D90320EFE0454B00221A60DE
:1009A800FFF7E0FD0546404B5B6F13F0020F06D0E2
:1009B800FFF7D8FD401B0228F5D90320DDE02368A6
:1009C80013F0040F79D0384B1B6C13F0805F33D1D0
:1009D80000230193344B1A6C42F080521A641B6C4A
:1009E80003F080530193019B0125324B1B6813F4DC
:1009F800807F23D0A368012B34D0052B38D02A4B15
:100A08001A6F22F001021A671A6F22F004021A679D
:100A1800A368002B36D0FFF7A5FD0646224B1B6FB7
:100A280013F0020F48D1FFF79DFD801B41F2883378
:100A38009842F3D90320A0E00025D6E71D4A1368A1
:100A480043F480731360FFF78DFD0646194B1B684E
:100A580013F4807FCED1FFF785FD801B0228F5D9DE
:100A680003208AE0104A136F43F001031367CFE7AE
:100A78000D4B1A6F42F004021A671A6F42F0010216
:100A88001A67C5E7FFF76EFD0646074B1B6F13F0A5
:100A9800020F11D0FFF766FD801B41F288339842A0
:100AA800F3D9032069E000BF003802400000474244
:100AB800800E474200700040E5B9A369002B5BD067
:100AC800304A926802F00C02082A58D0022B17D03C
:100AD8002D4B00221A60FFF745FD0446294B1B6881
:100AE80013F0007F42D0FFF73DFD001B0228F5D927
:100AF800032042E0234A136C23F080531364DCE79D
:100B0800214B00221A60FFF72DFD05461D4B1B687F
:100B180013F0007F06D0FFF725FD401B0228F5D90A
:100B280003202AE0E369226A1343626A43EA8213D4
:100B3800A26A5208013A43EA0243E26A43EA0263BC
:100B4800104A5360104B01221A60FFF70BFD044650
:100B58000C4B1B6813F0007F06D1FFF703FD001B49
:100B68000228F5D9032008E0002006E0002004E070
:100B780001207047012000E0002002B070BD012074
:100B8800FBE700BF0038024060004742324B9B68D9
:100B980003F00C03042B5CD0082B01D02F487047BE
:100BA8002DE9F04B2C4B5A6802F03F025B6813F4B6
:100BB800800F2BD0284B5B68C3F388131E46002791
:100BC8005C010025E41A65EB0705A90141EA946177
:100BD800A001001B61EB0501CB0043EA5073C40080
:100BE800A01943EB07014B0243EAD05344022046C5
:100BF80019460023FFF7ECFA174B5B68C3F3014370
:100C080001335B00B0FBF3F0BDE8F08B124B5B687F
:100C1800C3F388131E4600275C010025E41A65EB20
:100C28000705A90141EA9461A001001B61EB0501D8
:100C3800CB0043EA5073C400A01943EB07018B02B1
:100C480043EA90538402204619460023FFF7C0FA6E
:100C5800D2E70348704700BF003802400024F40080
:100C680000127A00002800F09D8070B504464F4BB2
:100C78001B6803F00F038B4209D2CBB24B4A1370A7
:100C8800136803F00F038B4201D0012070BD236865
:100C980013F0020F17D013F0040F04D0444A9368DE
:100CA80043F4E0539360236813F0080F04D0404ADC
:100CB800936843F4604393603D4A936823F0F003DC
:100CC800A068034393600D46236813F0010F32D0E8
:100CD8006368012B21D09A1E012A25D9344A12684B
:100CE80012F0020F60D032498A6822F003021343DF
:100CF8008B60FFF737FC06462D4B9B6803F00C030F
:100D08006268B3EB820F16D0FFF72CFC801B41F210
:100D180088339842F0D90320B8E7254A126812F4BC
:100D2800003FE0D10120B1E7214A126812F0007FAC
:100D3800D9D10120AAE71D4B1B6803F00F03AB4272
:100D480009D9EAB2194B1A701B6803F00F03AB42BA
:100D580001D001209AE7236813F0040F06D0144A43
:100D6800936823F4E053E1680B439360236813F01E
:100D7800080F07D00E4A936823F46043216943EAB9
:100D8800C1039360FFF702FF094B9B68C3F303138A
:100D9800084AD35CD840084B18600020FFF798FB3E
:100DA800002073E70120704701206FE7003C0240F4
:100DB800003802405C1500080800002070B4036A7F
:100DC80023F001030362036A4268846924F0730410
:100DD8000D6845EA040623F002048B6823430D4D91
:100DE800A84209D00B4DA8420DD0426086614A68DE
:100DF8004263036270BC704723F00803CC68234346
:100E080023F00403EEE722F440724C6914438A6924
:100E18002243EAE70000014030B4036A23F48073F8
:100E28000362036A4268C46924F073040D682C43A2
:100E380023F400738D6843EA05230F4DA84209D0B7
:100E48000D4DA8420ED04260C4614A68C263036275
:100E580030BC704723F40063CD6843EA052323F4CC
:100E68008063EDE722F440524D6942EA05128D692C
:100E780042EA0512E7E700BF0000014030B4036A08
:100E880023F480530362036A4468C26922F4E64289
:100E98000D6842EA052223F400538D6843EA0533BE
:100EA800074DA84206D04460C2614A6802640362E2
:100EB80030BC704724F480444D6944EA8514F2E755
:100EC800000001400368254A90420ED0B0F1804FDF
:100ED8000BD0A2F57C42904207D002F58062904286
:100EE80003D002F58062904203D123F070034A6870
:100EF80013431A4A90421AD0B0F1804F17D0A2F586
:100F08007C42904213D002F5806290420FD002F5E5
:100F1800806290420BD002F59A32904207D002F5D7
:100F28008062904203D002F58062904203D123F49C
:100F38004073CA68134323F080034A69134303606C
:100F48008B68C3620B688362044B984202D001230A
:100F5800436170470B690363F9E700BF0000014074
:100F6800A8B110B5044690F83D305BB1022384F86F
:100F78003D30211D2068FFF7A5FF012384F83D308F
:100F8800002010BD80F83C3000F00AFAEEE701209E
:100F98007047000030B4036A23F010030362036A49
:100FA8004468826922F4E6420D6842EA052223F089
:100FB80020038D6843EA05130E4DA84209D00D4D54
:100FC800A8420ED0446082614A688263036230BCE2
:100FD800704723F08003CD6843EA051323F04003EC
:100FE800EDE724F440644D6944EA85048D6944EAD8
:100FF8008504E7E70000014038B590F83C30012B44
:1010080066D00D460446012380F83C30022380F860
:101018003D300C2A1AD8DFE802F0071919192019EF
:1010280019193419191947000068FFF7C7FE226813
:10103800936943F0080393612268936923F00403DA
:1010480093612268936929690B439361012384F8AA
:101058003D30002084F83C0038BD0068FFF79AFF57
:101068002268936943F4006393612268936923F4C7
:101078008063936122689369296943EA0123936134
:10108800E4E70068FFF7C8FE2268D36943F0080365
:10109800D3612268D36923F00403D3612268D3693A
:1010A80029690B43D361D1E70068FFF7E7FE22689F
:1010B800D36943F40063D3612268D36923F480635E
:1010C800D3612268D369296943EA0123D361BDE763
:1010D8000220C1E710B401F01F01012303FA01F453
:1010E800036A23EA04030362036A8A401343036220
:1010F8005DF8044B7047000010B5044601220068F3
:10110800FFF7E8FF23680A4A93420BD022689368E6
:1011180003F00703062B03D0136843F001031360A1
:10112800002010BD5A6C42F400425A64EEE700BF3A
:101138000000014090F83C30012B1CD070B401260F
:1011480080F83C60022380F83D3002685568936857
:1011580025F070050C682C4323F080054B682B4361
:1011680054600268936080F83D60002380F83C304A
:10117800184670BC70470220704790F83C30012B2D
:1011880022D0012380F83C30CB6823F440738A686E
:10119800134323F480634A68134323F400630A6803
:1011A800134323F480530A69134323F400534A6911
:1011B800134323F48043CA6913430268536400232A
:1011C80080F83C30184670470220704782B00023F0
:1011D8000193064B1A6B42F010021A631B6B03F063
:1011E80010030193019B02B0704700BF0038024012
:1011F80030B593B000241094119409940A940B9478
:101208000C940D940E940F942022214601A800F00E
:101218008DF91A4D1A4B2B6053236B60AC6044F662
:101228001F63EB602C616C61AC612846FFF798FE88
:101238001094119410A92846FFF77CFF60230993A6
:101248000A940B940C940D940E940F94224609A9B9
:101258002846FFF7D1FE0194029403940494059460
:101268004FF400530693089401A92846FFF785FF19
:10127800284600F0ADF813B030BD00BF2C000020A8
:101288000000014030B595B03022002108A800F0D8
:101298004DF900240394049405940694079401944A
:1012A800194B1A6C42F080521A641B6C03F080537D
:1012B8000193019B0294154B1A6842F440421A604C
:1012C8001B6803F440430293029B022508950123FF
:1012D8000B9310230C930E950F940823109354220C
:1012E80011921295139308A8FFF784FA0F2303931A
:1012F800049505944FF4805306930793294603A851
:10130800FFF7B0FC15B030BD003802400070004057
:1013180008B5FFF701F9FFF7B5FFFFF757FFFFF72C
:1013280067FF00210C48FFF7E7FE0C4B40F2DC5248
:101338005A634FF47A70FFF71BF9084C40F2DC53FC
:1013480063634FF4FA60FFF713F94FF4FA606063D0
:10135800FFF70EF9F1E700BF2C0000200000014064
:1013680000B583B0002100910C4B5A6C42F48042C6
:101378005A645A6C02F480420092009A01911A6CE5
:1013880042F080521A641B6C03F080530193019B56
:101398000720FFF701F903B05DF804FB00380240AD
:1013A8000268094B9A4200D0704782B0002301932B
:1013B800064B5A6C42F001025A645B6C03F001035D
:1013C8000193019B02B070470000014000380240C1
:1013D80000B587B000230193029303930493059308
:1013E80002680F4B9A4202D007B05DF804FB002355
:1013F80000930C4B1A6B42F010021A631B6B03F03C
:1014080010030093009B4FF400730193022302938F
:101418000123059301A90448FFF71AF9E4E700BF7F
:101428000000014000380240001002407047FEE70B
:10143800FEE7FEE7FEE770477047704708B5FFF71D
:1014480085F808BD0F49D1F8883043F47003C1F816
:1014580088300D4B1A6842F001021A60002098602B
:101468001A6822F0847222F480321A60074A5A609D
:101478001A6822F480221A60D8604FF000638B60EB
:10148800704700BF00ED00E0003802401030002433
:10149800DFF834D0002103E00C4B5B584350043193
:1014A8000B480C4B42189A42F6D30B4A02E0002331
:1014B80042F8043B094B9A42F9D3FFF7C3FF00F007
:1014C80011F8FFF725FF7047000002208415000877
:1014D800000000200C0000200C0000206C00002000
:1014E800FEE7000070B50D4E0D4CA41BA41000259E
:1014F800A54209D10B4E0C4C00F020F8A41BA410F7
:101508000025A54205D170BD56F82530984701350C
:10151800EEE756F8253098470135F2E77C150008C4
:101528007C1500087C150008801500080244034655
:10153800934200D1704703F8011BF9E7F8B500BFE3
:10154800F8BC08BC9E467047F8B500BFF8BC08BC9C
:041558009E467047F4
:10155C000000000000000000010203040607080957
:08156C0000000000010203046D
:0815740094ECFF7F0100000070
:04157C00BD010008A5
:0415800099010008C5
:0C15840001000000100000000024F40032
:040000050800149942
:00000001FF
